:1000000000308A0019280000223084008313000881
:10001000031918280130F800F701F70B0D28F80B29
:100020000C284A30F700F70B13281628800B0A28F3
:100030000034840183131F30830583168E15073027
:1000400083129F00831681130108C7390838810085
:10005000831290010030F800920000308316920065
:10006000073083129F008316050885000330F700D0
:10007000F70B382883121F080C1383169F011030CA
:10008000831285008601E0306500F030660086014D
:10009000FF30A1000608F039A0002008F03C031949
:1000A000FA280E3086000608F039A0002008F03C3F
:1000B000031973282008703A03196828C03A0319F5
:1000C0006B28603A03196E28303A03197128732897
:1000D0000130A10073280230A10073280330A10071
:1000E00073280A30A100210F76287728E7280D30E1
:1000F00086000608F039A0002008F03C0319992872
:100100002008703A03198E28C03A03199128603AE2
:1001100003199428303A0319972899280430A1002C
:1001200099280530A10099280630A10099280B30A4
:10013000A100210F9C289D28E7280B308600060887
:10014000F039A0002008F03C0319BF282008703ABD
:100150000319B428C03A0319B728603A0319BA281A
:10016000303A0319BD28BF280730A100BF28083046
:10017000A100BF280930A100BF280C30A100210F29
:10018000C228C328E728073086000608F039A000F7
:100190002008F03C0319E4282008703A0319DA28F3
:1001A000C03A0319DD28603A0319DF28303A0319F1
:1001B000E228E4280F30A100E428A101E4280E3051
:1001C000A100E4280D30A100210FE728FA2821081A
:1001D0008500051286010608F039A0002008F03CD1
:1001E0000319F9280608F039A0000A30A2000420FB
:0E01F000EE2805160A30A200042047286300FE
:02400E00311F60
:00000001FF
;PIC16F627A
