:100000000C9434000C941B020C9451000C9451007D
:100010000C9451000C9451000C9451000C9451001C
:100020000C9451000C9451000C9451000C9451000C
:100030000C9451000C9451000C946E020C945100DD
:100040000C9451000C9451000C9451000C945100EC
:100050000C9451000C9451000C9451000C945100DC
:100060000C9451000C94510011241FBECFEFD8E026
:10007000DEBFCDBF11E0A0E0B1E0E8E8F0E102C0F2
:1000800005900D92A03FB107D9F722E0A0EFB1E0B3
:1000900001C01D92A430B207E1F70E9427030C941F
:1000A00042080C940000EF92FF920F931F93CF939E
:1000B000DF93CDB7DEB72A970FB6F894DEBF0FBE39
:1000C000CDBF8C017901E8E0F0E030E011C0D8014B
:1000D000AE0FBF1F9C91905341F0A1E0B0E0AC0F78
:1000E000BD1FA30FB11D9C933F5F333019F03197B3
:1000F000FF236CF7332311F0898101C085E0FB01F8
:100100008083323010F08A8101C085E0FA0180835B
:10011000333010F08B8101C085E0F70180832A968F
:100120000FB6F894DEBF0FBECDBFDF91CF911F9108
:100130000F91FF90EF900895CF92DF92EF92FF9290
:100140000F931F93CF936B017C0184B1826084B9BC
:1001500080E48093800088E080938100C0E032C01A
:100160000C2F10E0F801EE0FFF1FEB51FE4FA081A6
:10017000B181A70196010E9430059B01AC01220FBD
:10018000331F441F551F60E472E48FE090E00E942B
:100190000E05DA01C9010197A109B109009721E013
:1001A000A207B10570F49093890080938800000F36
:1001B000111FF801E552FE4F808188608093810015
:1001C0000CC0CF5FC53060F28FEF9FEF9093890036
:1001D000809388008DE080938100CF911F910F91D3
:1001E000FF90EF90DF90CF900895CF92DF92EF9243
:1001F000FF920F931F93CF936B017C0184B18860B2
:1002000084B982E48093B000C0E030C00C2F10E0CD
:10021000F801EE0FFF1FE353FE4FA081B181A7014C
:1002200096010E9430059B01AC01220F331F441F31
:10023000551F60E472E48FE090E00E940E05DA0141
:10024000C9010197A109B1098F3F9105A105B10528
:1002500009F058F48093B300000F111FF801E15426
:10026000FE4F80818093B10009C0CF5FC73070F22C
:100270008FEF8093B30087E08093B100CF911F91FF
:100280000F91FF90EF90DF90CF90089524B12062FE
:1002900024B922E024BD3CE737BD20936E0023E063
:1002A00025BD611571058105910521F461E070E0BE
:1002B00080E090E09B01AC01220F331F441F551FCB
:1002C00068EE73E080E090E00E940E052115310594
:1002D00011F421E030E01092F1011092F00130931E
:1002E000010120930001089598B1907F282F229555
:1002F0002F70922B98B998B19F7D98B998B1906161
:1003000098B900C098B19F7E98B991E29A95F1F79B
:10031000000098B1907F8F70892B88B988B1806177
:1003200088B900C088B18F7E88B981E28A95F1F7DB
:100330000000089598B1907F282F22952F70922B5E
:1003400098B998B1906298B998B1906198B900C085
:1003500098B19F7E98B991E29A95F1F7000098B113
:10036000907F8F70892B88B988B1806188B900C06F
:1003700088B18F7E88B981E28A95F1F700000895EF
:100380008FEF87B988B1807C88B987E893E10197BE
:10039000F1F700C0000083E30E94740182E30E9431
:1003A000740188E20E9474018CE00E94740186E06E
:1003B0000E94740181E00E94740183EF91E0019733
:1003C000F1F700C000000895CF93DF9300D0CDB7C0
:1003D000DEB790E8998390EC9A83E62FF0E03197AE
:1003E00021E030E02C0F3D1FE20FF31F9081890FB9
:1003F00081500E94740131E23A95F1F700000F90AC
:100400000F90DF91CF910895CF93DF93EC0103C05C
:1004100021960E949A0188818111FACFDF91CF91B4
:10042000089581E00E94740183EF91E00197F1F754
:1004300000C0000008951F920F920FB60F92112472
:100440008F93AF93BF93EF93FF93CF93DF93CDB78A
:10045000DEB76097DEBFCDBF80E1E3E0F1E0DE0113
:10046000119601900D928A95E1F789B182958F706E
:10047000E1E0F0E0EC0FFD1FE80FF11D80818093BB
:100480000302809103028A3040F0809103028A3097
:1004900098F080910302803178F4809103028F30CC
:1004A00031F48091020282608093020205C0809143
:1004B000020281608093020260960FB6F894DEBF5C
:1004C0000FBECDBFDF91CF91FF91EF91BF91AF9163
:1004D0008F910F900FBE0F901F9018951F920F9243
:1004E0000FB60F9211242F933F938F939F93809178
:1004F000F0019091F10101969093F1018093F00148
:1005000020910001309101018217930730F080E2C1
:1005100083B91092F1011092F0019F918F913F9158
:100520002F910F900FBE0F901F901895CF92DF92D2
:10053000EF92FF920F931F93CF93DF93CDB7DEB768
:1005400061970FB6F894DEBF0FBECDBF8091F40166
:10055000882319F03091F40101C031E08091F50158
:10056000882319F08091F50101C0832F9091F60145
:10057000992319F02091F60101C0282F90910201D2
:10058000923049F09330C1F09130F9F4C32ED12C60
:10059000E12CF12C1EC090E06C01CC0CDD1C880F0E
:1005A000991F880F991F880F991FC80ED91E0D2CEF
:1005B000000CEE08FF080DC084E6289F600111249E
:1005C0000D2C000CEE08FF0804C0C32ED12CE12C2A
:1005D000F12C0E94110261E081E00E94E40180910F
:1005E000F301882319F083E191E002C081E291E0F8
:1005F0000E94040262E081E00E94E401FF92EF9217
:10060000DF92CF9281E391E09F938F931F9281E1DC
:100610008F938E010F5F1F4F1F930F930E944A0508
:10062000C8010E9404020FB6F894DEBF0FBECDBF12
:1006300061960FB6F894DEBF0FBECDBFDF91CF91AC
:100640001F910F91FF90EF90DF90CF900895F89455
:100650000E94C00184B1846D84B985B18B7285B963
:1006600084B18A6284B98AB18B7F8AB98BB1846084
:100670008BB98AB18F708AB98BB1806F8BB982E0E8
:10068000809369008DB381608DBB78940E941102C4
:1006900061E081E00E94E40183E491E00E940402B1
:1006A0008091020281FF1FC0809102028D7F8093A2
:1006B00002021092F701109202011092F20180E002
:1006C00006C0E82FF0E0E850FE4F10828F5F8930BF
:1006D000C0F30E94110261E081E00E94E40183E422
:1006E00091E00E9404028091F20181118BC08091FF
:1006F000020280FF87C0809102028E7F80930202F7
:10070000809103028E3009F05BC08091F70189303F
:10071000D1F51092010224EF31E045EF51E066EF90
:1007200071E088EF91E00E9453000E94110261E0A5
:1007300081E00E94E40189E491E00E94040262E009
:1007400081E00E94E40188EF91E00E94040283EDC1
:1007500090E30197F1F700C0000081E08093F2017F
:100760000E94110261E081E00E94E40185E591E0D0
:100770000E94040262E081E00E94E4018CE591E0C5
:100780000E9404028DCF0E94110261E081E00E946C
:10079000E40185E691E00E94040283ED90E3019775
:1007A000F1F700C000000E94110261E081E00E94A8
:1007B000E40183E791E00E9404021092F70170CFF8
:1007C0008091F701893008F06BCF809103028A3065
:1007D00008F066CFE091F70181E08E0F8093F7017A
:1007E000F0E080910302805DE850FE4F80830E941C
:1007F000110261E081E00E94E40188EF91E00E9433
:1008000004024ECF8091F201813009F063C08091E3
:10081000020280FF5FC0809102028E7F80930202FD
:10082000809103028A3049F581E08093F30182E0F0
:100830008093F2010E94110261E081E00E94E401D4
:1008400085E891E00E94040283ED90E30197F1F7BF
:1008500000C000000E94110261E081E00E94E401FA
:1008600083E991E00E94040262E081E00E94E401D9
:1008700080EA91E00E94040213CF809103028B3042
:1008800009F00ECF1092F30182E08093F2010E94F2
:10089000110261E081E00E94E4018FEA91E00E9490
:1008A000040283ED90E30197F1F700C000000E947D
:1008B000110261E081E00E94E40183E991E00E947D
:1008C000040262E081E00E94E40180EA91E00E947B
:1008D0000402E6CE8091F201823009F094C080914A
:1008E000020280FF90C0809102028E7F80930202FC
:1008F00080910302882309F4D3CE809103028430CF
:1009000008F0CECE80910302809302018091F40121
:10091000882319F06091F40101C061E08091F50134
:10092000882319F09091F50101C0962F8091F6016E
:10093000882319F08091F60101C0892F20910201CE
:10094000213021F470E080E090E026C02091020187
:10095000223091F4892F90E0BC01660F771F880F39
:10096000991F880F991F880F991F680F791F072EED
:10097000000C880B990B10C090910201933049F440
:1009800094E6899FB0011124072E000C880B990B67
:1009900003C060E070E0CB012091F301211109C098
:1009A00025B12B7225B925B1206825B90E949C007C
:1009B00026C020910201213049F425B12B7225B9BE
:1009C00025B1246025B90E949C0019C02091020124
:1009D000223049F425B12B7225B925B1206125B902
:1009E0000E94F5000CC020910201233041F425B192
:1009F0002B7225B925B1206425B90E94460183E0F8
:100A00008093F2014DCE8091F201833009F048CEFF
:100A10000E94960284E08093F20142CEA1E21A2E57
:100A2000AA1BBB1BFD010DC0AA1FBB1FEE1FFF1F92
:100A3000A217B307E407F50720F0A21BB30BE40BE2
:100A4000F50B661F771F881F991F1A9469F7609529
:100A50007095809590959B01AC01BD01CF010895E3
:100A60000E943B05A59F900DB49F900DA49F800D03
:100A7000911D11240895A29FB001B39FC001A39FAF
:100A8000700D811D1124911DB29F700D811D1124C7
:100A9000911D0895AEE0B0E0E0E5F5E00C94190892
:100AA0000D891E898F89988D26E02C831A830983EE
:100AB00097FF02C080E090E801979E838D83AE018E
:100AC000455E5F4F698D7A8DCE0101960E947A0551
:100AD0004D815E8157FD0AC02F813885421753072B
:100AE0000CF49A01F801E20FF31F10822E96E4E055
:100AF0000C943508ABE0B0E0E0E8F5E00C940B08AE
:100B00006C017B018A01FC0117821682838181FFBF
:100B1000CCC1CE0101963C01F6019381F70193FD12
:100B2000859193FF81917F01882309F4BAC18532B1
:100B300039F493FD859193FF81917F01853229F4EA
:100B4000B60190E00E947107E7CF912C212C312C47
:100B5000FFE1F315D8F08B3279F038F4803279F078
:100B60008332A1F4232D20611DC08D3261F08033CA
:100B700069F4232D216016C0832D8260382EE32D69
:100B8000E4603E2E2AC0F32DF8601DC037FC2DC056
:100B900020ED280F2A3040F08E32B9F436FC81C1A6
:100BA000232D2064322E19C036FE06C08AE0989E9E
:100BB000200D1124922E11C0EAE02E9E200D11244A
:100BC000222EF32DF0623F2E08C08C3621F4832DA7
:100BD0008068382E02C0883641F4F70193FD859174
:100BE00093FF81917F018111B3CF982F9F7D955401
:100BF000933028F40C5F1F4F9FE399830DC0833619
:100C000031F0833771F0833509F059C021C0F80104
:100C1000808189830E5F1F4F88248394912C530118
:100C200013C02801F2E04F0E511CF801A080B180E2
:100C300036FE03C0692D70E002C06FEF7FEFC50183
:100C40000E9466074C018201F32DFF773F2E16C0EC
:100C5000280122E0420E511CF801A080B18036FE2E
:100C600003C0692D70E002C06FEF7FEFC5010E94E5
:100C70005B074C01F32DF0683F2E820133FC1BC053
:100C8000822D90E088169906B0F4B60180E290E0DB
:100C90000E9471072A94F4CFF50137FC859137FE45
:100CA00081915F01B60190E00E94710721102A94A2
:100CB00021E0821A91088114910471F7E8C084360A
:100CC00011F0893641F5F80137FE07C06081718166
:100CD000828193810C5F1F4F08C060817181072E54
:100CE000000C880B990B0E5F1F4FF32DFF763F2EE4
:100CF00097FF09C090958095709561957F4F8F4FB4
:100D00009F4FF0683F2E2AE030E0A3010E94AD071C
:100D1000882E861845C0853731F4232D2F7EB22EBC
:100D20002AE030E025C0932D997FB92E8F36C1F08F
:100D300018F4883579F0B5C0803719F0883721F07C
:100D4000B0C0E92FE061BE2EB4FE0DC0FB2DF460F3
:100D5000BF2E09C034FE0AC0292F2660B22E06C05D
:100D600028E030E005C020E130E002C020E132E0C0
:100D7000F801B7FE07C060817181828193810C5FA9
:100D80001F4F06C06081718180E090E00E5F1F4FB1
:100D9000A3010E94AD07882E8618FB2DFF773F2EFA
:100DA00036FE0DC0232D2E7FA22E891458F434FE5A
:100DB0000BC032FC09C0832D8E7EA82E05C0B82C36
:100DC000A32C03C0B82C01C0B92CA4FE0FC0FE0197
:100DD000E80DF11D8081803321F49A2D997EA92E92
:100DE00009C0A2FE06C0B394B39404C08A2D8678CD
:100DF00009F0B394A3FC11C0A0FE06C0B21488F49D
:100E0000280C922C9B180EC0B21460F4B60180E23C
:100E100090E00E947107B394F7CFB21418F42B1826
:100E200002C0982C212CA4FE10C0B60180E390E0F3
:100E30000E947107A2FE17C0A1FC03C088E790E0E2
:100E400002C088E590E0B6010CC08A2D867859F082
:100E5000A1FE02C08BE201C080E2A7FC8DE2B601D8
:100E600090E00E947107891438F4B60180E390E0A5
:100E70000E9471079A94F7CF8A94F301E80DF11D4F
:100E80008081B60190E00E9471078110F5CF222089
:100E900009F442CEB60180E290E00E9471072A94E4
:100EA000F6CFF6018681978102C08FEF9FEF2B96D8
:100EB000E2E10C942708FC0105906150704001109C
:100EC000D8F7809590958E0F9F1F0895FC01615073
:100ED000704001900110D8F7809590958E0F9F1F5C
:100EE00008950F931F93CF93DF93FB01238121FD7F
:100EF00003C08FEF9FEF2CC022FF16C046815781A1
:100F0000248135814217530744F4A081B1819D01AA
:100F10002F5F3F4F318320838C93268137812F5F52
:100F20003F4F3783268314C08B01EC01FB01008403
:100F3000F185E02D0995892BE1F6D80116968D9162
:100F40009C911797019617969C938E931697CE01B6
:100F5000DF91CF911F910F910895FA01AA272830B0
:100F600051F1203181F1E8946F936E7F6E5F7F4F76
:100F70008F4F9F4FAF4FB1E03ED0B4E03CD0670FF2
:100F8000781F891F9A1FA11D680F791F8A1F911D45
:100F9000A11D6A0F711D811D911DA11D20D009F495
:100FA00068943F912AE0269F11243019305D3193D7
:100FB000DEF6CF010895462F4770405D4193B3E0C0
:100FC0000FD0C9F7F6CF462F4F70405D4A3318F067
:100FD000495D31FD4052419302D0A9F7EACFB4E018
:100FE000A6959795879577956795BA95C9F70097D0
:100FF0006105710508959B01AC010A2E0694579571
:10100000479537952795BA95C9F7620F731F841FC7
:10101000951FA01D08952F923F924F925F926F925D
:101020007F928F929F92AF92BF92CF92DF92EF9278
:10103000FF920F931F93CF93DF93CDB7DEB7CA1BF9
:10104000DB0B0FB6F894DEBF0FBECDBF09942A8824
:10105000398848885F846E847D848C849B84AA84CC
:10106000B984C884DF80EE80FD800C811B81AA8159
:10107000B981CE0FD11D0FB6F894DEBF0FBECDBF24
:08108000ED010895F894FFCF83
:10108800010001020E000F0708090405060D0C0BEC
:101098000A030153696E652057617665204F7574A0
:1010A800005371756172652057617665204F7574BC
:1010B80000467265713D256C75487A20443D35308F
:1010C800252500456E7465722053747564656E74C9
:1010D800204E6F3A00413A53696E6500423A5371A7
:1010E80075617265004E65656420392064696769B9
:1010F800747300456E74657220392D64696769746C
:101108002049443A0053696E652073656C656374C1
:1011180065640053656C65637420667265713A0096
:10112800313A463120323A463220333A4633005378
:1011380071756172652073656C656374656400011F
:101148000002000300040005000600070001000873
:10115800002000400080000001000401000200039C
:101168000004000500010008004000000100040020
:00000001FF
